{
  "contractName": "RimmingToken2",
  "abi": [
    {
      "inputs": [],
      "stateMutability": "nonpayable",
      "type": "constructor"
    },
    {
      "anonymous": false,
      "inputs": [
        {
          "indexed": true,
          "internalType": "address",
          "name": "tokenOwner",
          "type": "address"
        },
        {
          "indexed": true,
          "internalType": "address",
          "name": "spender",
          "type": "address"
        },
        {
          "indexed": false,
          "internalType": "uint256",
          "name": "tokens",
          "type": "uint256"
        }
      ],
      "name": "Approval",
      "type": "event"
    },
    {
      "anonymous": false,
      "inputs": [
        {
          "indexed": true,
          "internalType": "address",
          "name": "from",
          "type": "address"
        },
        {
          "indexed": true,
          "internalType": "address",
          "name": "to",
          "type": "address"
        },
        {
          "indexed": false,
          "internalType": "uint256",
          "name": "tokens",
          "type": "uint256"
        }
      ],
      "name": "Transfer",
      "type": "event"
    },
    {
      "inputs": [],
      "name": "_totalSupply",
      "outputs": [
        {
          "internalType": "uint256",
          "name": "",
          "type": "uint256"
        }
      ],
      "stateMutability": "view",
      "type": "function",
      "constant": true
    },
    {
      "inputs": [],
      "name": "decimals",
      "outputs": [
        {
          "internalType": "uint8",
          "name": "",
          "type": "uint8"
        }
      ],
      "stateMutability": "view",
      "type": "function",
      "constant": true
    },
    {
      "inputs": [],
      "name": "name",
      "outputs": [
        {
          "internalType": "string",
          "name": "",
          "type": "string"
        }
      ],
      "stateMutability": "view",
      "type": "function",
      "constant": true
    },
    {
      "inputs": [],
      "name": "symbol",
      "outputs": [
        {
          "internalType": "string",
          "name": "",
          "type": "string"
        }
      ],
      "stateMutability": "view",
      "type": "function",
      "constant": true
    },
    {
      "inputs": [
        {
          "internalType": "uint256",
          "name": "_value",
          "type": "uint256"
        }
      ],
      "name": "burn",
      "outputs": [
        {
          "internalType": "bool",
          "name": "sucess",
          "type": "bool"
        }
      ],
      "stateMutability": "nonpayable",
      "type": "function"
    },
    {
      "inputs": [
        {
          "internalType": "address",
          "name": "account",
          "type": "address"
        },
        {
          "internalType": "uint256",
          "name": "amount",
          "type": "uint256"
        }
      ],
      "name": "mint",
      "outputs": [],
      "stateMutability": "nonpayable",
      "type": "function"
    },
    {
      "inputs": [],
      "name": "totalSupply",
      "outputs": [
        {
          "internalType": "uint256",
          "name": "",
          "type": "uint256"
        }
      ],
      "stateMutability": "view",
      "type": "function",
      "constant": true
    },
    {
      "inputs": [
        {
          "internalType": "address",
          "name": "_owner",
          "type": "address"
        }
      ],
      "name": "balanceOf",
      "outputs": [
        {
          "internalType": "uint256",
          "name": "",
          "type": "uint256"
        }
      ],
      "stateMutability": "view",
      "type": "function",
      "constant": true
    },
    {
      "inputs": [
        {
          "internalType": "address",
          "name": "receiver",
          "type": "address"
        },
        {
          "internalType": "uint256",
          "name": "numTokens",
          "type": "uint256"
        }
      ],
      "name": "transfer",
      "outputs": [
        {
          "internalType": "bool",
          "name": "success",
          "type": "bool"
        }
      ],
      "stateMutability": "nonpayable",
      "type": "function"
    },
    {
      "inputs": [
        {
          "internalType": "address",
          "name": "owner",
          "type": "address"
        },
        {
          "internalType": "address",
          "name": "buyer",
          "type": "address"
        },
        {
          "internalType": "uint256",
          "name": "numTokens",
          "type": "uint256"
        }
      ],
      "name": "transferFrom",
      "outputs": [
        {
          "internalType": "bool",
          "name": "success",
          "type": "bool"
        }
      ],
      "stateMutability": "nonpayable",
      "type": "function"
    },
    {
      "inputs": [
        {
          "internalType": "address",
          "name": "tokenOwner",
          "type": "address"
        },
        {
          "internalType": "address",
          "name": "spender",
          "type": "address"
        }
      ],
      "name": "allowance",
      "outputs": [
        {
          "internalType": "uint256",
          "name": "remaining",
          "type": "uint256"
        }
      ],
      "stateMutability": "view",
      "type": "function",
      "constant": true
    },
    {
      "inputs": [
        {
          "internalType": "address",
          "name": "spender",
          "type": "address"
        },
        {
          "internalType": "uint256",
          "name": "tokens",
          "type": "uint256"
        }
      ],
      "name": "approve",
      "outputs": [
        {
          "internalType": "bool",
          "name": "success",
          "type": "bool"
        }
      ],
      "stateMutability": "nonpayable",
      "type": "function"
    }
  ],
  "bytecode": "0x60806040523480156200001157600080fd5b5033600160006101000a81548173ffffffffffffffffffffffffffffffffffffffff021916908373ffffffffffffffffffffffffffffffffffffffff1602179055506040518060400160405280600881526020017f52494d4d494e473200000000000000000000000000000000000000000000000081525060029080519060200190620000a09291906200023c565b506040518060400160405280600d81526020017f52494d4d494e47546f6b656e320000000000000000000000000000000000000081525060039080519060200190620000ee9291906200023c565b506012600460006101000a81548160ff021916908360ff160217905550600460009054906101000a900460ff1660ff16600a6200012c919062000375565b620f42406200013c9190620004b2565b60008190555060005460056000600160009054906101000a900473ffffffffffffffffffffffffffffffffffffffff1673ffffffffffffffffffffffffffffffffffffffff1673ffffffffffffffffffffffffffffffffffffffff16815260200190815260200160002081905550600160009054906101000a900473ffffffffffffffffffffffffffffffffffffffff1673ffffffffffffffffffffffffffffffffffffffff16600073ffffffffffffffffffffffffffffffffffffffff167fddf252ad1be2c89b69c2b068fc378daa952ba7f163c4a11628f55a4df523b3ef6000546040516200022e9190620002fd565b60405180910390a3620005be565b8280546200024a906200051d565b90600052602060002090601f0160209004810192826200026e5760008555620002ba565b82601f106200028957805160ff1916838001178555620002ba565b82800160010185558215620002ba579182015b82811115620002b95782518255916020019190600101906200029c565b5b509050620002c99190620002cd565b5090565b5b80821115620002e8576000816000905550600101620002ce565b5090565b620002f78162000513565b82525050565b6000602082019050620003146000830184620002ec565b92915050565b6000808291508390505b60018511156200036c5780860481111562000344576200034362000553565b5b6001851615620003545780820291505b80810290506200036485620005b1565b945062000324565b94509492505050565b6000620003828262000513565b91506200038f8362000513565b9250620003be7fffffffffffffffffffffffffffffffffffffffffffffffffffffffffffffffff8484620003c6565b905092915050565b600082620003d85760019050620004ab565b81620003e85760009050620004ab565b81600181146200040157600281146200040c5762000442565b6001915050620004ab565b60ff84111562000421576200042062000553565b5b8360020a9150848211156200043b576200043a62000553565b5b50620004ab565b5060208310610133831016604e8410600b84101617156200047c5782820a90508381111562000476576200047562000553565b5b620004ab565b6200048b84848460016200031a565b92509050818404811115620004a557620004a462000553565b5b81810290505b9392505050565b6000620004bf8262000513565b9150620004cc8362000513565b9250817fffffffffffffffffffffffffffffffffffffffffffffffffffffffffffffffff048311821515161562000508576200050762000553565b5b828202905092915050565b6000819050919050565b600060028204905060018216806200053657607f821691505b602082108114156200054d576200054c62000582565b5b50919050565b7f4e487b7100000000000000000000000000000000000000000000000000000000600052601160045260246000fd5b7f4e487b7100000000000000000000000000000000000000000000000000000000600052602260045260246000fd5b60008160011c9050919050565b61137680620005ce6000396000f3fe608060405234801561001057600080fd5b50600436106100b45760003560e01c806340c10f191161007157806340c10f191461019157806342966c68146101ad57806370a08231146101dd57806395d89b411461020d578063a9059cbb1461022b578063dd62ed3e1461025b576100b4565b806306fdde03146100b9578063095ea7b3146100d757806318160ddd1461010757806323b872dd14610125578063313ce567146101555780633eaaf86b14610173575b600080fd5b6100c161028b565b6040516100ce9190611010565b60405180910390f35b6100f160048036038101906100ec9190610ec1565b610319565b6040516100fe9190610ff5565b60405180910390f35b61010f61040b565b60405161011c9190611092565b60405180910390f35b61013f600480360381019061013a9190610e72565b610414565b60405161014c9190610ff5565b60405180910390f35b61015d610832565b60405161016a91906110ad565b60405180910390f35b61017b610845565b6040516101889190611092565b60405180910390f35b6101ab60048036038101906101a69190610ec1565b61084b565b005b6101c760048036038101906101c29190610efd565b610993565b6040516101d49190610ff5565b60405180910390f35b6101f760048036038101906101f29190610e0d565b610a58565b6040516102049190611092565b60405180910390f35b610215610aa1565b6040516102229190611010565b60405180910390f35b61024560048036038101906102409190610ec1565b610b2f565b6040516102529190610ff5565b60405180910390f35b61027560048036038101906102709190610e36565b610d0f565b6040516102829190611092565b60405180910390f35b60038054610298906111f6565b80601f01602080910402602001604051908101604052809291908181526020018280546102c4906111f6565b80156103115780601f106102e657610100808354040283529160200191610311565b820191906000526020600020905b8154815290600101906020018083116102f457829003601f168201915b505050505081565b600081600660003373ffffffffffffffffffffffffffffffffffffffff1673ffffffffffffffffffffffffffffffffffffffff16815260200190815260200160002060008573ffffffffffffffffffffffffffffffffffffffff1673ffffffffffffffffffffffffffffffffffffffff168152602001908152602001600020819055508273ffffffffffffffffffffffffffffffffffffffff163373ffffffffffffffffffffffffffffffffffffffff167f8c5be1e5ebec7d5bd14f71427d1e84f3dd0314c0f7b2291e5b200ac8c7c3b925846040516103f99190611092565b60405180910390a36001905092915050565b60008054905090565b60008073ffffffffffffffffffffffffffffffffffffffff168373ffffffffffffffffffffffffffffffffffffffff16141561044f57600080fd5b600560008573ffffffffffffffffffffffffffffffffffffffff1673ffffffffffffffffffffffffffffffffffffffff168152602001908152602001600020548211156104d1576040517f08c379a00000000000000000000000000000000000000000000000000000000081526004016104c890611032565b60405180910390fd5b600660008573ffffffffffffffffffffffffffffffffffffffff1673ffffffffffffffffffffffffffffffffffffffff16815260200190815260200160002060003373ffffffffffffffffffffffffffffffffffffffff1673ffffffffffffffffffffffffffffffffffffffff16815260200190815260200160002054821115610590576040517f08c379a000000000000000000000000000000000000000000000000000000000815260040161058790611052565b60405180910390fd5b6105e282600560008773ffffffffffffffffffffffffffffffffffffffff1673ffffffffffffffffffffffffffffffffffffffff16815260200190815260200160002054610d9690919063ffffffff16565b600560008673ffffffffffffffffffffffffffffffffffffffff1673ffffffffffffffffffffffffffffffffffffffff168152602001908152602001600020819055506106b482600660008773ffffffffffffffffffffffffffffffffffffffff1673ffffffffffffffffffffffffffffffffffffffff16815260200190815260200160002060003373ffffffffffffffffffffffffffffffffffffffff1673ffffffffffffffffffffffffffffffffffffffff16815260200190815260200160002054610d9690919063ffffffff16565b600660008673ffffffffffffffffffffffffffffffffffffffff1673ffffffffffffffffffffffffffffffffffffffff16815260200190815260200160002060003373ffffffffffffffffffffffffffffffffffffffff1673ffffffffffffffffffffffffffffffffffffffff1681526020019081526020016000208190555081600560008573ffffffffffffffffffffffffffffffffffffffff1673ffffffffffffffffffffffffffffffffffffffff1681526020019081526020016000205461077f91906110e4565b600560008573ffffffffffffffffffffffffffffffffffffffff1673ffffffffffffffffffffffffffffffffffffffff168152602001908152602001600020819055508273ffffffffffffffffffffffffffffffffffffffff168473ffffffffffffffffffffffffffffffffffffffff167fddf252ad1be2c89b69c2b068fc378daa952ba7f163c4a11628f55a4df523b3ef8460405161081f9190611092565b60405180910390a3600190509392505050565b600460009054906101000a900460ff1681565b60005481565b600073ffffffffffffffffffffffffffffffffffffffff168273ffffffffffffffffffffffffffffffffffffffff1614156108bb576040517f08c379a00000000000000000000000000000000000000000000000000000000081526004016108b290611072565b60405180910390fd5b806000808282546108cc91906110e4565b9250508190555080600560008473ffffffffffffffffffffffffffffffffffffffff1673ffffffffffffffffffffffffffffffffffffffff168152602001908152602001600020600082825461092291906110e4565b925050819055508173ffffffffffffffffffffffffffffffffffffffff16600073ffffffffffffffffffffffffffffffffffffffff167fddf252ad1be2c89b69c2b068fc378daa952ba7f163c4a11628f55a4df523b3ef836040516109879190611092565b60405180910390a35050565b600081600560003373ffffffffffffffffffffffffffffffffffffffff1673ffffffffffffffffffffffffffffffffffffffff1681526020019081526020016000205410156109e157600080fd5b81600560003373ffffffffffffffffffffffffffffffffffffffff1673ffffffffffffffffffffffffffffffffffffffff1681526020019081526020016000206000828254610a30919061113a565b9250508190555081600080828254610a48919061113a565b9250508190555060019050919050565b6000600560008373ffffffffffffffffffffffffffffffffffffffff1673ffffffffffffffffffffffffffffffffffffffff168152602001908152602001600020549050919050565b60028054610aae906111f6565b80601f0160208091040260200160405190810160405280929190818152602001828054610ada906111f6565b8015610b275780601f10610afc57610100808354040283529160200191610b27565b820191906000526020600020905b815481529060010190602001808311610b0a57829003601f168201915b505050505081565b6000600560003373ffffffffffffffffffffffffffffffffffffffff1673ffffffffffffffffffffffffffffffffffffffff16815260200190815260200160002054821115610b7d57600080fd5b610bcf82600560003373ffffffffffffffffffffffffffffffffffffffff1673ffffffffffffffffffffffffffffffffffffffff16815260200190815260200160002054610d9690919063ffffffff16565b600560003373ffffffffffffffffffffffffffffffffffffffff1673ffffffffffffffffffffffffffffffffffffffff1681526020019081526020016000208190555081600560008573ffffffffffffffffffffffffffffffffffffffff1673ffffffffffffffffffffffffffffffffffffffff16815260200190815260200160002054610c5d91906110e4565b600560008573ffffffffffffffffffffffffffffffffffffffff1673ffffffffffffffffffffffffffffffffffffffff168152602001908152602001600020819055508273ffffffffffffffffffffffffffffffffffffffff163373ffffffffffffffffffffffffffffffffffffffff167fddf252ad1be2c89b69c2b068fc378daa952ba7f163c4a11628f55a4df523b3ef84604051610cfd9190611092565b60405180910390a36001905092915050565b6000600660008473ffffffffffffffffffffffffffffffffffffffff1673ffffffffffffffffffffffffffffffffffffffff16815260200190815260200160002060008373ffffffffffffffffffffffffffffffffffffffff1673ffffffffffffffffffffffffffffffffffffffff16815260200190815260200160002054905092915050565b600082821115610dcf577f4e487b7100000000000000000000000000000000000000000000000000000000600052600160045260246000fd5b8183610ddb919061113a565b905092915050565b600081359050610df281611312565b92915050565b600081359050610e0781611329565b92915050565b600060208284031215610e1f57600080fd5b6000610e2d84828501610de3565b91505092915050565b60008060408385031215610e4957600080fd5b6000610e5785828601610de3565b9250506020610e6885828601610de3565b9150509250929050565b600080600060608486031215610e8757600080fd5b6000610e9586828701610de3565b9350506020610ea686828701610de3565b9250506040610eb786828701610df8565b9150509250925092565b60008060408385031215610ed457600080fd5b6000610ee285828601610de3565b9250506020610ef385828601610df8565b9150509250929050565b600060208284031215610f0f57600080fd5b6000610f1d84828501610df8565b91505092915050565b610f2f81611180565b82525050565b6000610f40826110c8565b610f4a81856110d3565b9350610f5a8185602086016111c3565b610f6381611286565b840191505092915050565b6000610f7b600e836110d3565b9150610f8682611297565b602082019050919050565b6000610f9e6010836110d3565b9150610fa9826112c0565b602082019050919050565b6000610fc1601f836110d3565b9150610fcc826112e9565b602082019050919050565b610fe0816111ac565b82525050565b610fef816111b6565b82525050565b600060208201905061100a6000830184610f26565b92915050565b6000602082019050818103600083015261102a8184610f35565b905092915050565b6000602082019050818103600083015261104b81610f6e565b9050919050565b6000602082019050818103600083015261106b81610f91565b9050919050565b6000602082019050818103600083015261108b81610fb4565b9050919050565b60006020820190506110a76000830184610fd7565b92915050565b60006020820190506110c26000830184610fe6565b92915050565b600081519050919050565b600082825260208201905092915050565b60006110ef826111ac565b91506110fa836111ac565b9250827fffffffffffffffffffffffffffffffffffffffffffffffffffffffffffffffff0382111561112f5761112e611228565b5b828201905092915050565b6000611145826111ac565b9150611150836111ac565b92508282101561116357611162611228565b5b828203905092915050565b60006111798261118c565b9050919050565b60008115159050919050565b600073ffffffffffffffffffffffffffffffffffffffff82169050919050565b6000819050919050565b600060ff82169050919050565b60005b838110156111e15780820151818401526020810190506111c6565b838111156111f0576000848401525b50505050565b6000600282049050600182168061120e57607f821691505b6020821081141561122257611221611257565b5b50919050565b7f4e487b7100000000000000000000000000000000000000000000000000000000600052601160045260246000fd5b7f4e487b7100000000000000000000000000000000000000000000000000000000600052602260045260246000fd5b6000601f19601f8301169050919050565b7f535455434b204154204f574e4552000000000000000000000000000000000000600082015250565b7f535455434b20415420414c4c4f57454400000000000000000000000000000000600082015250565b7f45524332303a206d696e7420746f20746865207a65726f206164647265737300600082015250565b61131b8161116e565b811461132657600080fd5b50565b611332816111ac565b811461133d57600080fd5b5056fea264697066735822122001148e007a9b90437f2634305b40278125253c91614bc0982e2b2bb47934b60864736f6c63430008040033",
  "immutableReferences": {},
  "source": "pragma solidity ^0.8.2;\r\n\r\n//import \"@openzeppelin/contracts/token/ERC20/ERC20.sol\";\r\n\r\n/**\r\n * @title SafeMath\r\n * @dev Math operations with safety checks that throw on error\r\n */\r\nlibrary SafeMath {\r\n    function mul(uint256 a, uint256 b) internal pure returns (uint256) {\r\n        if (a == 0) {\r\n            return 0;\r\n        }\r\n        uint256 c = a * b;\r\n        assert(c / a == b);\r\n        return c;\r\n    }\r\n\r\n    function div(uint256 a, uint256 b) internal pure returns (uint256) {\r\n        // assert(b > 0); // Solidity automatically throws when dividing by 0\r\n        uint256 c = a / b;\r\n        // assert(a == b * c + a % b); // There is no case in which this doesn't hold\r\n        return c;\r\n    }\r\n\r\n    function sub(uint256 a, uint256 b) internal pure returns (uint256) {\r\n        assert(b <= a);\r\n        return a - b;\r\n    }\r\n\r\n    function add(uint256 a, uint256 b) internal pure returns (uint256) {\r\n        uint256 c = a + b;\r\n        assert(c >= a);\r\n        return c;\r\n    }\r\n}\r\n\r\n\r\n\r\ncontract Owned {\r\n    /* Define owner of the type address */\r\n    address owner;\r\n    \r\n    /**\r\n     * Modifiers partially define a function and allow you to augment other functions.\r\n     * The rest of the function continues at _;\r\n     */\r\n    modifier onlyOwner {\r\n        require(msg.sender == owner);\r\n        _;\r\n    }\r\n\r\n    /* This function is executed at initialization and sets the owner of the contract */\r\n    constructor() public { \r\n        owner = msg.sender; \r\n    }\r\n}\r\n\r\n/**\r\n * @title ERC20Basic\r\n * @dev Simpler version of ERC20 interface\r\n * @dev see https://github.com/ethereum/EIPs/issues/20\r\n */\r\nabstract contract ERC20 {\r\n    uint public _totalSupply;\r\n    function totalSupply() public view virtual returns (uint);\r\n    function balanceOf(address who) public view virtual returns (uint256);\r\n    //function transfer(address to, uint value) public view virtual;\r\n    function transfer(address to, uint tokens) public virtual returns (bool success);\r\n    \r\n    function transferFrom(address from, address to, uint256 tokens) public virtual returns (bool success);\r\n    \r\n    function allowance(address tokenOwner, address spender) public view virtual returns (uint remaining);\r\n    \r\n    function approve(address spender, uint tokens) public virtual returns (bool success);\r\n    \r\n   // function _mint(address account, uint256 amount) internal virtual returns (bool success);\r\n     \r\n    event Transfer(address indexed from, address indexed to, uint tokens);\r\n    \r\n    event Approval(address indexed tokenOwner, address indexed spender, uint tokens);\r\n    //event Transfer(address indexed from, address indexed to, uint value);\r\n}\r\n\r\n/*contract ApproveAndCallFallBack {\r\n    function receiveApproval(address from, uint256 tokens, address token, bytes data) public;\r\n}*/\r\n\r\n\r\n\r\n\r\n\r\ncontract RimmingToken2 is  ERC20, Owned{\r\n    \r\n    using SafeMath for uint;\r\n    \r\n    string public symbol;\r\n    string public  name;\r\n    uint8 public decimals;\r\n    //uint _totalSupply;\r\n\r\n    mapping(address => uint) balances;\r\n    mapping(address => mapping(address => uint)) allowed;\r\n\r\n\r\n    // ------------------------------------------------------------------------\r\n    // Constructor\r\n    // ------------------------------------------------------------------------\r\n    constructor() public {\r\n        symbol = \"RIMMING2\";\r\n        name = \"RIMMINGToken2\";\r\n        decimals = 18;\r\n        _totalSupply = 1000000 * 10**uint(decimals);\r\n        //_totalSupply = 10000000;\r\n        balances[owner] = _totalSupply;\r\n        emit Transfer(address(0), owner, _totalSupply);\r\n    }\r\n    \r\n    \r\n    function burn(uint _value) public returns (bool sucess) {\r\n        require(balances[msg.sender] >= _value);\r\n        \r\n        balances[msg.sender] -= _value;\r\n        _totalSupply -= _value;\r\n        return true;\r\n    } \r\n    \r\n     function mint(address account, uint256 amount) public virtual {\r\n        require(account != address(0), \"ERC20: mint to the zero address\");\r\n\r\n         _totalSupply += amount;\r\n        balances[account] += amount;\r\n        emit Transfer(address(0), account, amount);\r\n    }\r\n    \r\n    \r\n    function totalSupply() public view virtual override returns (uint256) {\r\n        return _totalSupply;\r\n    }\r\n\r\n\r\n    function balanceOf(address _owner) public view virtual override returns (uint256) {\r\n        return balances[_owner];\r\n  }\r\n\r\n    \r\n   function transfer(address receiver, uint numTokens) public virtual override returns (bool success) {\r\n          require(numTokens <= balances[msg.sender]);\r\n          balances[msg.sender] = balances[msg.sender].sub(numTokens);\r\n          balances[receiver] = balances[receiver] + numTokens;\r\n          emit Transfer(msg.sender, receiver, numTokens);\r\n          return true;\r\n}\r\n    \r\n    function transferFrom(address owner, address buyer, uint256 numTokens) public virtual override returns (bool success) {\r\n          require(buyer != address(0));\r\n          require(numTokens <= balances[owner], \"STUCK AT OWNER\");\r\n          require(numTokens <= allowed[owner][msg.sender], \"STUCK AT ALLOWED\");\r\n          balances[owner] = balances[owner].sub(numTokens);\r\n          allowed[owner][msg.sender] = allowed[owner][msg.sender].sub(numTokens);\r\n          balances[buyer] = balances[buyer] + numTokens;\r\n          \r\n          emit Transfer(owner, buyer, numTokens);\r\n         // transfer(buyer, numTokens);\r\n        //approve(buyer, numTokens);\r\n          return true;\r\n}\r\n    \r\n        // ------------------------------------------------------------------------\r\n    // Returns the amount of tokens approved by the owner that can be\r\n    // transferred to the spender's account\r\n    // ------------------------------------------------------------------------\r\n    function allowance(address tokenOwner, address spender) public virtual override view returns (uint remaining) {\r\n        return allowed[tokenOwner][spender];\r\n    }\r\n\r\n\r\n    // ------------------------------------------------------------------------\r\n    // Token owner can approve for `spender` to transferFrom(...) `tokens`\r\n    // from the token owner's account. The `spender` contract function\r\n    // `receiveApproval(...)` is then executed\r\n    // ------------------------------------------------------------------------\r\n    /*function approveAndCall(address spender, uint tokens, bytes data) public virtual override returns (bool success) {\r\n        allowed[msg.sender][spender] = tokens;\r\n        emit Approval(msg.sender, spender, tokens);\r\n        ApproveAndCallFallBack(spender).receiveApproval(msg.sender, tokens, this, data);\r\n        return true;\r\n    }*/\r\n    \r\n    function approve(address spender, uint tokens) public virtual override returns (bool success) {\r\n        allowed[msg.sender][spender] = tokens;\r\n        emit Approval(msg.sender, spender, tokens);\r\n        return true;\r\n    }\r\n}\r\n\r\n\r\n\r\n\r\n",
  "sourcePath": "C:/Users/coflaher/mycontract/contracts/RimmingToken2.sol",
  "compiler": {
    "name": "solc",
    "version": "0.8.4+commit.c7e474f2.Emscripten.clang"
  },
  "schemaVersion": "3.4.1",
  "updatedAt": "2021-05-21T11:45:53.697Z",
  "networkType": "ethereum",
  "devdoc": {
    "kind": "dev",
    "methods": {},
    "version": 1
  },
  "userdoc": {
    "kind": "user",
    "methods": {},
    "version": 1
  }
}